S01A00006275696C642F4469576865656C44726976652E737265632F
S3FD080060000004002041F2000841F3000841F3000841F3000841F3000841F3000841F3000841F3000841F3000841F3000871F3000841F3000841F3000841F3000841F4000841F30008811D010841F3000841F3000841F3000841F30008811B0108B11B0108E11B0108111C0108411C01085117010881170108B1170108E117010811180108411801087118010841F30008811F0108E11F01087120010801210108711C010841F3000841F3000841F3000841F30008E131010841F3000841F3000881290108A1290108E1290108012A010841F3000841F30008E133010841F3000841F30008F11C0108B11D0108E11D010841F3000841F3000841F300087C
S33D080060F841F3000841F3000841F3000841F3000841F3000841F3000841F3000841F3000841F3000841F30008A1180108D11801080119010831190108E0
S30908006150EE11AA553F
S33D08006154F1620008E1630008A1640008E165000831660008C1670008A1690008416A0008F16A0008916B0008B16B0008D16B0008016E000801720008AE
S3FD0800619000207047AFF30080AFF30080AFF300802DE9F047D0F8D85182B004464C480EF07FF82B682846DB69984701AFD4F8DC81002204218223C4F8FC218DF80430C4F8F411C4F8F07198F80330D4F8D8018DF8053098F8023004F5F676C82B9ABF0A22B3FBF2F314238DF8063098F801304FF0FF328DF80730036831465B69984780238DF8043098F8002002238DF80520C4F8F43140B12B6828461B6A98476FF0010002B0BDE8F087D4F8D801314603684FF0FF325B6998472B6880461B6A28469847B8F1000FEAD14FF0850A0DF103094FF0010835E02B682846DB699847D4F8D8018DF803A003680422C4F8F091C4F8F8715B69C4F8F481C4F8B6
S3FD08006288FC2131464FF0FF32984778B99DF804009DF805209DF806109DF8073042EA002243EA0123A4F8E421A4F8E6312B6828461B6A984704F5F07000210EF045F84FF0FF303F210EF020F80DF0F6FF0028C5D0002002B0BDE8F087E0470208AFF30080AFF30080AFF30080024B034A1A605A60704700BF64190020A0860100AFF30080AFF30080AFF30080F0B5044685B031480DF0CAFF20460EF0A7FB002856D103270DF10706012549E0D4F8E0018DF80770026802A9C4F8F811C4F8F061C4F8FC31C4F8F451D3699847D4F8E00104F5F67103684FF0FF325B699847D4F8E00103681B6A9847202383F3118809F0A5F99DF808C09DF809109DF83E
S3FD080063800AE09DF80B209DF80C009DF80D3001EB0C2103EB002302EB0E22A4F8DC31A4F8D811A4F8DA2109F0ABF9002383F31188002104F5F4700DF0CBFF4FF0FF303F210DF0A6FF0DF07CFF06230028B0D0002005B0F0BD6FF00100FAE700BF30480208024B034A1A605A60704700BF6C190020A0860100AFF30080AFF30080AFF3008030B5044683B025480DF052FF3DE0684616F0E6FFE725D4F8D801694608236A468DF800500DF0C4FF9DF8013004F5EE70DD074FF0000109D59DF803509DF8022042EA052242F30B12A4F8E0219A0709D59DF805509DF8042042EA052242F30B12A4F8E2215B0709D59DF807209DF8063043EA022343F30B1331
S3FD08006478A4F8E4310DF068FF4FF0FF303F210DF043FF0DF019FFFF2108220028BBD0002003B030BD60480208024B034A1A605A60704700BF74190020A0860100AFF30080AFF30080AFF30080F0B583B004460DF0ABFE064640480DF0EFFE0DF0F5FEFF210822002871D1D4F8043268461E44E72516F07AFFD4F8EC0169466A4608238DF800500DF059FF9DF80150202383F3118809F0DAF8E90707D59DF803209DF8023003EB0223A4F8D831AA0707D59DF805209DF8043003EB0223A4F8DA316B0707D59DF807209DF8063003EB0223A4F8DC3109F0DAF8002383F31188D4F8F42120230132C4F8F42183F3118809F0ADF8D4F8E011D4F8E421D4F839
S3FD08006570E831B4F9D871B4F9DA51B4F9DC01394403442A44C4F8E831C4F8E011C4F8E42109F0B6F8002383F31188012104F5F8700DF0D6FE0DF03CFE86420A490A480BD3304609F08DFC0DF083FEFF21082200288DD0002003B0F0BD0EF06AFB81E700BFEC490208C049020828360020AFF30080024B034A1A605A60704700BF7C190020A0860100AFF30080AFF30080AFF3008010B5044607E023682046DB6898474FF47A700DF065FE0DF053FE0028F3D0002010BD00BFAFF30080AFF30080AFF30080024B034A1A605A60704700BF84190020A0860100AFF30080AFF30080AFF300802DE9F84304460DF0E3FD054655480DF027FE04F29441D4F841
S3FD0800666824030FF061FB04F56D71D4F824030FF033FC04F56E71D4F824030FF09DFB04F57371D4F824030FF0DFFB04F56C71D4F824030FF089FC04F56B71D4F824030FF03BFCD4F8D80204F537710AF07DFDD4F8183301229A40D4F814334FF47A781A613B4F3C4E0DF0F8FD002863D1D4F8203304F5507108FB03F3013BA7FB0323D4F8100304F5527205EB931510F0BDFAD4F820334EF66020B0FBF3F006F017FFD4F84813814606F068FF07F02EF986FB0032C317C3EB2223C4F82833D4F84C13484606F05AFF07F020F986FB0023C017C0EB2320C4F82C03204610F05EFA013523460520D3F8D413D3F8EC230138C3F8D013C3F8E82303F1040318
S3FD08006760F3D1D4F88433D4F87023C4F8FC33C4F8E423204610F084F9204610F0E1FA284609F0A6FBD4F8A8330133322BC8BF0023C4F8A8330DF094FD00289BD000232046C4F85033C4F8543310F0CAFA0120BDE8F88300BF6C4C0208D34D6210E9A28B2E024B034A1A605A60704700BF8C190020A0860100AFF30080AFF30080AFF300802DE9F84F82460DF01BFD064666480DF05FFD504610F094FB4FF47A78634FDFF8989102E0304609F063FB0DF059FD002840F0A980DAF8E4319AF8E02108FB03F3013BA7FB031306EB93160136002AE9D00AF5F8742246DAF8DC010AF5F47110F017FA20460AF5FC7110F062FADAF8F80106F02AFA4AA3D3E932
S3FD08006858002306F079FA06F017FDDAF800520544CAF80052DAF8FC0106F01AFA42A3D3E9002306F069FA06F007FDDAF8043200EB030BCAF804B205EB0B0006F0F7F93E4B002206F059FA06F0F7FC9AF8E1310446CAF8080213B94442CAF80842C5EB0B0006F03CFED9F8001006F042FF07F054F89AF8E231CAF80C0213B94042CAF80C02DAF810321C1B44BF0023CAF81832DAF8143258BFCAF81842181A4ABF0023CAF81C02CAF81C32504610F036FB9AF8E03113B19AF8E3316BBBDAF8200206F0A6F90446DAF8E4010D4606F0A0F900221B4B06F012FA02460B462046294606F058F806F0D2FC78B1CAF82002DAF81832002B7FF45CAFDAF81C329B
S3FD08006950002B7FF457AF504610F0E2FA52E70123CAF82032EDE70120BDE8F88FDAF8D8010AF50F710FF01CFD00238AF8E331C7E70000000080842E41A04C0208D34D62100000E03F00408F4018080020AFF30080024B034A1A605A60704700BF94190020A0860100AFF30080AFF30080AFF30080F8B504460DF02CFC054618480DF070FC174F184E0DF074FC4FF47A7308BBD4F8E422316803FB02F3013BA7FB0323C4F8F412204605EB931510F01AFE204610F0B7FC0DF00DFC013585420B490B480AD3284609F05DFA0DF053FC4FF47A730028DDD00120F8BD10F043FBD3E7FC4C0208D34D621018080020D04C020828360020024B034A1A605A601E
S3FD08006A48704700BF9C190020A0860100AFF30080AFF30080AFF3008070B50546D0F8C40105F5D876203086B0C5F8C001314602220DF05AFCD5F8C40105F5E4710AF02CF918480DF011FC03E00DF036FC042814D00DF012FC044642F210714FF0FF30002CF2D0D5F8C4010AF04FF9D5F8C00131460DF042FC002006B070BD21462346D5F8C40101AA0AF0C0F90028E1D12B6828465B6901A998470028DAD0284601A910F0FBFDD5E7104D0208024B034A1A605A60704700BFA4190020A0860100AFF30080AFF30080AFF3008070B504463F2300F5C270002204F5AE75C4F87C21C4F88831C4F88401C4F86C012946012204F5B8760DF0FAFB30460CF00A
S3FD08006B409FFE10480DF0B4FB05E04FF0FF300DF0CFFB02280DD00DF0B3FB0028F5D030460CF0AEFED4F86C0129460DF0E9FB002070BD236820465B699847236820469B699847E8E7804D0208AFF30080AFF30080024B034A1A605A60704700BFAC190020A0860100AFF30080AFF30080AFF30080024B034A1A605A60704700BFB4190020A0860100AFF30080AFF30080AFF30080024B034A1A605A60704700BFBC190020A0860100AFF30080AFF30080AFF300802DE9F047002486B004940594072103A810F026FF2146714803AA013410F0B8FE082CF3D1DFF8DC81002388F800300DF04FFBC246DFF8D0910446002840F0C280674802210DF07CFF39
S3FD08006C3810F5617FA9F8000077DA98F80030002B40F0B88001238AF80030072103A810F0FBFE03AA5B48042110F08EFE072103A810F0F2FE03AA5748052110F085FE8F2103A810F0E9FE03AA5248062110F07CFE8F2103A810F0E0FE03AA4E48072110F073FE8F2103A810F0D7FE03AA4948002110F06AFE8F2103A810F0CEFE03AA4548012110F061FE072103A810F0C5FE03AA4048022110F058FE072103A810F0BCFE03AA03213B4810F04FFE4FF47A700DF0FBFA072103A810F0AFFE03AA3548062110F042FE072103A810F0A6FE03AA3148072110F039FE072103A810F09DFE03AA2C48002110F030FE072103A810F094FE2848012103AA10F099
S3FD08006D3027FE98F80030002B33D0264D264F274E002428460DF02CFD385128460DF048FD30510434102C05F50075F2D11F4804A911F0B6FD1E4B0499059A03FB01F103FB02F21C480FF0DCFA00211B4810F090FD01210546184810F08BFD02210446164810F086FD2A46009023461448144911F05FFC3F200DF09CFA0DF08AFA044600283FF43EAF002006B0BDE8F0872146224608488AF800400FF0B3FA42E76036002058250020081B0020E8190020041A002040420F00B82B0020F83700206C180020B0500208D4190020001A0020AFF30080F0B40A490A4D0B4E0B4C0C4B19200A226FF009074FF00F0C2E606E6084E8011083E88400F0BC81E81F
S3FD08006E2805007047CC190020C4190020A0860100F8190020141A00202DE9F04F8DB009F003FF0AF021FC0DF0DFF9B948B9490AF063FAB748B84911F03FFEB548B74911F03BFEB74BB74A1B68934200F0B281B64A934240F0A981B54BAD481B68B4491A46009311F029FEB349A94811F025FE0A200DF022FAB049B1480AF02EF84FF4FA600DF01AFA082009210CF056FC0A200B210CF052FCAA48A0F11C010DF0E5FAA948A0F118010DF0E0FAA7480EF00DFE00230CA901F8193DA4480EF05EFE002840F021819348A1499DF8172011F0F5FD9048914911F0F1FD9E4A9E489F490A2313F02BF800228B4D8DF8172000E01A4606A995480EF091FE9DF808
S3FD08006F201700BDF8181005EB4020E8300DF040FC9DF8171002A805EB4121D1F8E83040229B68E83198479DF817307C4C0133DBB2032B8DF81730DDD902A804F5746140220DF0E6FB482204F50F6102A80DF0E0FB84480FF075F804F5526104F553600DF0CFFE02A804F5536145220DF0D1FB02A804F5C65154220FF08BF802A804F5E2517E2211F045F902A8774947220FF080F8492202A875490DF0BBFB002306A9724806930B930FF0F4F904F5326104F638300DF0C6FD02A804F6383144220DF0A8FB6B4B4FF49A6103F1080000934022694B08F016FF684B41F6D471022260501A619A689207FCD5654DDFF8BC91DFF8BCA14E4E614FDFF83881C0
S3FD08007018002464B394F820300E2B38D001200CF07BFBFA200DF058F900200CF075FBFA200DF052F92B68DFF85CB1002BE9D0404B1B68B34228D0434519D1404B1B682BB9514B1B68022B55D0032B5BD02A6834484E4911F039FD00232B60002CD2D14C484FF49A6140220CF017FF0446CEE72C48484911F029FD0023CBF80030C1E7204608F0AAFF0024C1E72C4B59780129DDD19B78012BDAD8DBF80030013B042BD5D83D4A52F82330224A9342CFD9D3F800B01B48BBF1000F17D0384911F005FD4FF080724FF40031396115483A61344911F0FBFC12F0C9FE3349114811F0F5FC0A200DF0F2F8D8478CE72F4911F0EDFCC5F800B086E7DBF80030F7
S3FD08007110013B042BA6D859F82330D0E7DBF80030013B042B9ED85AF82330C8E70248254911F0D6FCDFE600BF6C180020201A00209843020894620208C00100084C422D41009966FFC4010008A45F0208AC6202082408002078170020481A0020501A00209C2B0020085C02089A99993D58290020CDCCCC3DA42B0020B82B002070300020F0390020A142010800100140D03E0020C80100088C630208A0510208D4620208A0660208386302085C630208846302080C630208BC62020860510208805102080748084911F084FC59E6074904484A788B78C9780091054911F07AFC4FE600BF6C180020BC5F0208C4010008A45F020810B5074C074A084BF2
S3FD0800720820461A605A6012F0BFFC20460549064ABDE8104013F078B9201A0020A0860100C83E002071A2010860190020AFF30080AFF30080AFF3008070B44C1E4A2C2CD8DFE804F03C3C3C3C2B2B2B2B26263C2626262626262626262626262B27272727272727273C26262626262B26273D3C2B3C27273D2B2B26263C3C3C3C3C263C3C263C2B2B2626262B2B2B2626263C3C00CAB144698569AC4202DB002070BC704704EB440506690134AD00446174190CD071556260A360204670BC70471AB1002BE7D11846EAE71046E8E72046E6E700BF30B443698469A34209DA03EB430405690133A40043612B1901D001B112B9002030BC704700202855B1
S3FD0800730059609A60184630BC704700BF2DE9F041C5680446884617462B780E4617E0562B22D04B2B2DD1236B0135002F03F10603E56023630CBF1B211E21002213462046FFF77EFF3060D0B1E568061D2B78722BE5D1236B0135002F03F10903E56023630CBF19211C21E8E7236B0135002F03F10903E56023630CBF1A211D21DDE7BDE8F081BFB9462B15D1464513D01D241E201C2108E01B2A10D0192A00D1197003F10408464506D0D8F800301A781A2AF1D11C70F4E73046BDE8F0811870EFE700BF10B4C4680A462378522B10D04F2B03D008465DF8044B7047036B2021033303630134C46000235DF8044BFFF729BF036B1F2102330363F3E799
S3FD080073F82DE9F041D0F80CE080469EF800400F462E2C29D073462E2C14D15C78303C092C10D89C78981CA4F13002092A1AD8DD1C2C782B46A4F13006092E05F10105F7D92E2CEAD0CEEB03027146C8F80C304046FFF746FF3A4603464B214046BDE8F041FFF7F2BE0346D6E79EF80130A3F16102192A0CD80EF1020214781346A4F16101192902F10102F7D95F2CF5D0C3E75F2BC0D1EFE72DE9F003C2681378532B03D00020BDE8F0037047531CC3605378ABB1931CC36053785F2B52D10024036A9C42EED2836AC2690133836252F82400BDE8F0037047A3F14102192A46D9826812076AD400296AD13F4A02F1C40502E01C32AA42D5D014789C4245
S3FD080074F0F9D15569002D6AD043698469D2F81880A34262DA03EB4307D0F810C0BF0001331CEB070643615FD04FF018090CF8079037467560C6F80880C76200294AD0D5681269016BA34211440163ADDA03EB43010469013389004361631843D01820605418465D609A60A0E7A3F13005EAB2092AB4D8002212E002EBC20403EB8403A3F13004A24290D8C16822460B784D1C1BB1C5600B785F2B11D0A3F13005E9B2A3F141040929E4B2E6D9192C3FF67DAF02EBC20403EB8403A3F13704E2E7013481E7012194E7C2681178433901298CBF002101218CE755689268B3E70027ACE784694369AAE7184660E73746A5E7302D0208D0F8003170B5FF2B63
S3FD080075E804460D4606D05A1CC4F80021E55484F8045170BD00261946D0F80C21D0F8083180F8FF609847D4F8202133460132C4F820210122C4F80021E55484F8045170BD30B40268044613786E2B18D00025A3F13002092A18D822680020013200EB8001226003EB410112F8013BA1F13000A3F130010929F2D905B1404230BC7047531C036053780125E2E70020F4E74369826910B5934213DA03EB43020169920001338C18436108D040238B540C30FFF7C8FF23466060184610BD2346184610BD0023184610BD10B5C36804461A785F2A0BD06E2A06D00C30FFF7B3FFE3681A785F2A06D04FF0FF3010BD00200133E36010BD0130FAE738B5C36810
S3FD080076E004461A78542A01D0002038BD0133C360FFF7DCFF051EF7DBA16A6369A26901319342A162F0DA03EB430221690133920063618B18E8D005248C545D60184638BD08B5C3681A785F2A01D0012008BD013340F80C3FFFF778FFC043C00F08BD00BF70B504460C30FFF76FFF061E32DDE56863685B1B9E422FDCA268AB195207E36015D4092E0CDD28461449082215F098FD30B92B7A2E2B10D05F2B0ED0242B0CD0294632462046FFF7A7FDE06270BDAA5D242A04BF0133E360E3E76B7A4E2BEFD1236B204616339E1B266305491522FFF793FDEAE7002070BD0020E6E7206A02082C6A020838B5044629B9C3681A7832B15A1CC2601978682982
S3FD080077D812D0762901D0002038BD04F10C052846FFF71EFFE3681A785F2AF4D10133E3602846FFF715FF03E004F10C00FFF710FFE3681A785F2AE6D10133E360012038BDD0F810310246C3B15A680B68906870B102782F2A0DD1002B04DC09E002782F2A07D143B18068013B0028F7D17047704701D0002070474068704701211846C2F81811704738B50C46054691B323784A2B27D8DFE803F02E26262626302E2B2B2626262626262626262626262626262E26262626262626262626262626262E2626262626262626262E2B2626262626262626262626262E262626262E262E26262E2E0028466168FFF7CDFF18B9A468002CCCD1002038BD2846D2
S3FD080078D0211DFFF7A1FF0028F7D003782F2BF4D138BD00BFF0B55368946801330B44A34283B015460E46074613D8EC680CB103B0F0BD95E8090032463946184407F008F895E80C003244D4546B681E446E6003B0F0BDD268002AEAD11CB9022B4FF0020402D96400A342FCD82868214615F0E0FD034610B12860AC60D7E72868019315F0AFF9019B01222B606B60AB60EA60CEE72DE9F041C36805461A784C2A02D00020BDE8F0815A1CC26059785F293AD05A290DD10132EA602846002100F0EFFDEA681378452BEBD10132EA60BDE8F08100F003FA07460028E2D00378272B33D0E9680B786E2B28D04FF03B08452B34D0002BD5D04B1C01E0002C45
S3FD080079C8D1D0EB601E4613F8014B452CF7D1721A2846FFF77DFC3A46034641462846FFF72BFCEA681378452BBDD1D0E79A1CC2609B785A2BC1D0452B4FF00000B3D1C6E74A1CEA604B784FF03C081146D1E743681A7C002AC7D05A682B6B9B1A2B63C2E70022D5E7F0B5C16883B00B780446493B012BC76A1ED84A1CC2604B78452B45D0002102AE46F8041D493B0F2B35D8DFE803F02F2F34143434343434343434343434080132E260204601F06CFAE3681A78452A27D0002003B0F0BD2046FFF76CFF054620462F212A460023002DF2D0FFF7D3FB306000F108060028EBD0E2681378452BD1D101980132E260E76203B0F0BD2046FFF7B7FF054675
S3FD08007AC0E3E7204600F070F90546DEE70133E3600546DAE702310022C16013462F2103B0BDE8F040FFF7ACBB2DE9F041C26882B0137805464C3B0E2B6DD8DFE803F02C6C316C6C6C6C176C2C6C6C6C6C080001320021C26000F02AFDEB6806461978452900F0D180002002B0BDE8F0815378742B69D00021FFF7AAFCEB6804461B78492B50D12846FFF772FF2246034604212846FFF776FB01E001F0BBF802B0BDE8F0810132C26001A90122FFF7D0FB07460028D8D028460021FFF723FCEB6880461C780026002C00F08E80442C00F08280A4F13002D2B2092A5CD9A4F16102D2B2192A57D9432C55D0552C53D04C2C51D0532C00F08480492C7AD09A
S3FD08007BB8542C00F0B380452C00F0D8804D2C6DD1002E6BD05A1CEA605C781346D5E701F07BF8EB6804461B78492B03D0204602B0BDE8F081002899D02B6A6A6A934295DAEA69591C42F82300284629629EE702326549C2600322FFF763FB0446284601F05BF82246034601212846FFF70DFB2A6BEB6803322A631B780446492BD6D100283FF474AF2B6A6A6A9342BFF66FAFEA69591C42F82300296277E7284601F03CF8CEB10121324603462846FFF7EDFA0646EB68532C1C7888D0452C8CD0B6B12B6A6A6A934212DAEA69591C42F82360EB6829621C7879E70646EAE75B7803F0DF03542BDAD1284600F083F8D9E70020386002B0BDE8F081002E8C
S3FD08007CB0F8D02846FFF7BAFE0421CFE728460121FFF7E4FBC8E75A1CEA605A78732A3DD0642A2BD04FF0FF372846FFF705FF044620B10378442B01D0462B29D17B1C25D06B69AA69934213DA03EB43022969013392006B618B1803D0452088549F605C60284632460221FFF793FA02B0BDE8F0810023F5E72846FFF7D9FC95E70233EB602846FFF7BBFC071ECEDAF3E62346E7E72846FFF7EDFC0028D0D1EBE60233EB602846FFF7E5FC00283FF4E4AE284611490E22FFF7B9FA3246034602212846FFF767FAF2E63E60002E3FF4D4AEB8F1000F04D0019BCDF80480C8F80430EB681A78452A7FF4C7AE0133EB600198DDE600BF546A0208446A0208A3
S3FD08007DA8F0B5C26883B013780446722B54D0562B52D04B2B50D0A3F130014A297DD8DFE811F0A200A200A200A200A200A200A200A200A200A2007C007C007C007C007C007C007C00A7007C00CF00FF007C00DC00F2007C007C007C007C007C007101A200C101A7017C00B401CE01EF0107027C007C007C007C00A2007C007C007C007C007C007C0018021802180218021802180218021802180218027C0018021802180218027C007C007C0018021802890018021802180218021802204601A90022FFF751FA054648B32046FFF79AFF286020B302781F3A012A23D9019AF2B1236A616A8B421ADAE1695D1C41F823200198256203B0F0BD204601F054
S3FD08007EA055F84121024600232046FFF7C9F9019038B1E3681A7822B15A1CE2601B78452B1AD0002003B0F0BD019A416842602B6801932960019A002AD4D1F2E70132E2602046FFF72DFC2821024600232046FFF7A7F901900028E4D0236A626A9342E0DAE269591C42F8230001982162DAE72046FFF7EAFD0190EDE7511CE16053785F2B00F07782303B092B00F27B820A460132E2601378303B092BF9D9521A2046FFF7CBF90546002830D0E1680B785F2B2CD10131E1602046FFF727FF2A4603462A212046FFF76DF9D5E70132E2602046FFF71BFF2521024600232046FFF761F90190B8E7531CE36053780121592B04BF0232E260204600F0CCFADD
S3FD08007F9801462046FFF710FAE3681A78452A00F039820020B2E70132E2602046FFF7F8FE2621024600232046FFF73EF9019095E7531CE3605378002B3FF477AF931CE3605378463B302B3FF670AF01A151F823F0FF820008C37E0008C37E0008C37E0008C37E0008C37E0008C37E0008C37E0008C37E0008C37E0008C37E0008C37E0008C37E0008C37E00089D7E0008C37E0008C37E0008C37E0008C37E0008C37E0008C37E0008C37E0008C37E0008C37E0008C37E0008C37E0008C37E0008F3820008C37E0008C37E0008CB820008A38200087B820008C37E00085382000823820008C37E0008C37E0008C37E0008C37E0008D5830008C37E00087E
S3FD08008090BF830008C37E0008C37E00089B8300089D7E0008C37E0008658300080132E2602046FFF779FE01AE0746314620460122FFF724F9054600283FF46FAF2046FFF76BFE286000283FF468AFB54215D00178A1F11F02012A40F2A48129290DD0019A002A3FF45AAF236A616A8B42BFF655AFE169581C41F8232020623A4620462B21019BFFF795F8FDE60132E2602046FFF743FE2221024600232046FFF789F80190E0E60132E2602046FFF736FE2321024600232046FFF77CF80190D3E60132E2602046FFF729FE2421024600232046FFF76FF80190C6E65378A3F13002092A05D95F2B03D0413B192B00F2638120460021FFF784F9E368019055
S3FD080081881B780546492B7FF499AE2046FFF74AFC2A46034604212046FFF74EF80190A5E62046FFF797FAE36801901B78492B7FF49DAE00283FF481AE236A626A9342BFF67CAEE269591C42F82300019D2162DCE70132E2602046FFF7AFFA01902046FFF7DFFD21210246019B2046FFF725F801907CE66169A069613BA04D03EB8303814205EB8303C0F2F480002043685968236B01320B44E260236350E66369A269934280F2F58003EB43022169920001338818636100F0ED80924D27238B542B4645605A68236B1344236338E66369A269934280F2DD8003EB43022169920001338818636100F0D580874D27238B542B464560E6E76369A269934270
S3FD0800828080F2C98003EB43022169920001338818636100F0C1807E4D27238B542B464560D2E76369A269934280F2B58003EB43022169920001338818636100F0AD80754D27238B542B464560BEE76369A269934280F2A18003EB43022169920001338818636100F099806C4D27238B542B464560AAE7204669490422FEF7EEFFE2E56369A1698B4280F2A980216903EB4305013301EB850563612C2301952B709378303B092B8CBF002301232B81002B40F097802046FFF739FD6860019B5B68002B3FF4C0AD04F10C00FFF76FF9E3681A7832B15A1CE2601A78B2F173035A425A4101984281AFE593785F2B7FD02046FFF782F90546002D00F083802D
S3FD08008378E3681A785F2A7FF414AE0133E3602046FFF70EFD2A4603462D212046FEF754FFBCE56369A269934239DA03EB43022169920001338818636132D03B4D27238B542B46456044E72046FFF7F2FC4921024600232046FEF738FF01908FE56369A26993421CDA03EB43022169920001338818636115D02D4D27238B542B46456027E701EB41002569013180006161291837D027262E5408464B6000E700259CE50020436815E70133E36078E5204600F092FD054600287FF48CADBBE50199426841602B68117801932A6053E62046FFF750FB019000283FF439AD0378182B7FF450AD34E500255BE704F10C00FFF7E1F8019D62E70332E26020468D
S3FD0800847000F06CFD05467CE74B680846CAE6284648E500BFF42D02086030020838300208FC2F02082430020810300208586A02084C3002087430020870B5002382B0C2680193137804464BB3452B27D02E2B25D001AE17E04F2B17D02046FFF76DFC05462E2120462A460023C5B1FEF7B1FE3060A0B1E26800F10806137843B1452B06D02E2B04D0522BE5D15378452BE4D1019B23B19A682AB1184602B070BD002002B070BD596808782728F5D14968087C0928F1D14D68216B1846491B21635A60EBE770B5C36804461A784A2A0DD071B90D462046FFF7B1FF034670B120462A462921BDE87040FEF774BE0133C3602046FFF723FC05460028EBD141
S3FD08008568002070BD2DE9F047C36805461A780E46472A34D0542A32D0FFF7B2FA044658B316B1AB68DB071FD5EB681B7823B3452B22D021460B78042BA3F11C0200F0A480C0F0A080042A00F29D8049680029F1D12846FFF7B9FF2246034603212846BDE8F047FEF739BE64682378A3F11C02042AF9D9022B00F06E812046BDE8F087296B01F114022A631A78542A05D0472A00F0ED800020BDE8F0875A1CEA605A78002AF7D09A1CEA605B78433B332BF1D801A252F823F0298B0008FB850008FB850008138B0008FB850008FD8A0008E78A0008D18A0008FB850008FB850008FB850008FB850008FB850008FB850008FB850008FB850008BB8A000802
S3FD08008660A18A0008FB850008878A00084B8A0008FB850008FB850008FB850008FB850008FB850008FB850008FB850008FB850008FB850008FB850008FB850008178A0008FB850008FB850008FB850008FB850008618A0008FB850008FB850008FB850008FB850008FB850008FB850008FB850008FB850008FB850008FB850008FB850008FB850008FB850008F1890008002163E74B68002B00F0F4801A78013A322A00F2EF8001A151F822F0D9880008D9880008E1880008E1880008E1880008E1880008ED860008ED860008E1880008E1880008E1880008E1880008E1880008E1880008E1880008E1880008E1880008E1880008E1880008E188000859
S3FD08008758E1880008E1880008E1880008E1880008E1880008E1880008E1880008E1880008E1880008E1880008E1880008E1880008E1880008E1880008E1880008E1880008E1880008E1880008E1880008E1880008E1880008E1880008E1880008E1880008E1880008E1880008E1880008E1880008E1880008E1880008ED8600085A1CEA605A78002A3FF40DAF9A1CEA605A78413A312A3FF606AF01A151F822F0AD890008FB850008FB850008FB850008FB850008FB850008FB850008FB850008FB850008FB850008FB850008FB850008FB850008FB850008FB850008FB850008FB8500088F890008FB850008C5890008FB85000879890008FB85000852
S3FD08008850FB850008FB850008FB850008FB850008FB850008FB850008FB850008FB850008FB850008FB850008FB850008FB850008FB850008FB850008FB850008FB850008FB850008FB850008FB850008FB850008FB850008FB850008FB850008FB850008FB850008FB850008E5880008A3681A781C3A042A04D85B681A781C3A042AFAD9A3602046BDE8F0879B68002B7FF40CAF012169E605F10C00FEF79EFE01287FF784AEEB681A78002A3FF47FAE5E1CEE601B785F2B7FF479AE471E4FF000084FF03F093378002B3FF470AE242B00F024810024335D23B1242B02D00134BC42F8DB314628462246FEF7CFFCEE683F1B2644EE6000283FF459AECC
S3FD08008948B8F1000F00F02981424603463E212846FEF772FC804600283FF44BAE002FD4DC284642463D210023BDE8F047FEF764BC2846FFF7B5F81321024600232846BDE8F047FEF759BC2846FFF7AAF804462846FEF76CFE2246034616212846BDE8F047FEF74ABC28460021FFF7DCFD1721024600232846BDE8F047FEF73EBC9A7828460021002A00F0EB80DA1CEA609B786E2B40F0E580FFF7C6FD4821024600232846BDE8F047FEF728BC28467621FEF7E6FE00283FF4FEAD28460021FFF7B3FD1021024600232846BDE8F047FEF715BC28460021FEF7D3FE00283FF4EBAD28460021FEF7CCFE00283FF4E4AD28460021FFF799FD11210246002397
S3FD08008A402846BDE8F047FEF7FBBB2846FFF74CF81521024600232846BDE8F047FEF7F0BB28466821FEF7AEFE00283FF4C6AD28460021FFF77BFD0F21024600232846BDE8F047FEF7DDBB0F3129632846FFF78CF90921024600232846BDE8F047FEF7D0BB0A3129632846FFF77FF90A21024600232846BDE8F047FEF7C3BB2846FFF774F90D21024600232846BDE8F047FEF7B8BB2846FFF769F91221024600232846BDE8F047FEF7ADBB2846FFF75EF90C21024600232846BDE8F047FEF7A2BB2846FEF7F3FF1421024600232846BDE8F047FEF797BB2846FFF748F90E21024600232846BDE8F047FEF78CBB2846FFF73DF9044605F10C00FEF778FD78
S3FD08008B380028FFF65EADEA6811785F297FF459AD0132EA602846FFF72BF92B6B0246591D2963234628460B21BDE8F047FEF76CBB7378532B27D05F2B23D0242B7FF441AD1C466B69AA6993421FDA2A69581C03EB4301686112EB810017D002F821904460EE68023F0236EE60D2E68046DEE6FFF7E1FC4721024600232846BDE8F047FEF743BB2E24DDE72F24DBE7EB6800200233EB60BDE8F08700BF2DE9F041C36880461A786AB35A1CC260587893F800C018B19A1CC8F80C205878BCF1760F41D1A0F13004E3B2092B1DD84046FEF79DFDD8F81430D8F81820014693422FDA03EB4302D8F8100001339200C8F81430831825D021B3322585545C609F
S3FD08008C3099601846BDE8F08194461046234F3D25002304E0644512D90D46AB4212D0EA1A02EBD27203EB62010A01BE583A443478A445EFD17478A04217D08442ECD84B1CAB42ECD10020BDE8F081BCF1630FDDD17628DBD14046FFF78FF83321024600234046BDE8F041FEF7D3BAD8F81430D8F818108B42E6DA03EB4301D8F8100001338900C8F81430431805D0312444545A601846BDE8F0811846BDE8F08188300208F8B5C26804461378A3F1300109292ED9A3F16101192933D9A3F14301012971D94C2B00F08780552B40F08F8053786C2B30D0742B40F08980531CC3605178742900F0C38042294FF0000517D10133E3602046FEF70DFD2A46BD
S3FD08008D2803464A212046FEF787FAE36805461A78422AEFD006E0FEF7FFFCE368054619784229E7D02846F8BDFFF73EFF054610B10378312B5FD0E3681978F1E7531CC36051786C29D2D10232C260FFF799FBE3680646002800F0E18019784529C6D10133E3602046FEF78EFC0028C0F29C806369A269934280F2978003EB43022169920001338D18636100F08E8044238B546E60A860236A626A934280F28580E269591C42F82350E36821621978B9E7C06A00283CD00178002937D1216B83680B4423631178432978D0442973D15378303B052B4DD8DFE803F0482D464C4C4A0132C260FEF79AFC054620B12046FEF785FC0028A1D10020F8BD43685A
S3FD08008E20226B996818680A4407322263464905F0EFFD002893D12046FEF782FC2A46034635212046FEF7FCF9E368054619787BE71829C5D01946C8E702276169A569931CA942E36037DA01EB410526690131AD00616171192FD070B34FF0080C06F805C00D460F71886091785EE70327E5E70127E3E70427E1E7002558E70232C260FEF705FC002813DB6369A26993420FDA03EB43022169920001338D18636107D046238B546860236A626A9342FFF67BAFE3680025197838E70025D5E71346002533E75378313B042BD6D801A151F823F000BF378F0008058F00083F8F0008978E00083B8F000802276169A569931CA942E360E1DA01EB410526691C
S3FD08008F180131AD0061617119D9D00028D7D04FF0070C06F805C00D460F718860A7E70127E5E70427E3E70327E1E705461978FFE6606A02082DE9F041C16804460B784C2B00F09E80542B00F09F80732B57D0662B2DD0A3F13002092A0DD82046FFF7ACFE0546002800F08380E3681B78492B00F0A380BDE8F0816F2B7CD0692B00F0A780742B17D14B786C2B14D1FEF701FFE16805460231E1602046452100F0A9F92A46034630212046BDE8F041FEF73DB94B78702B40D02046FFF7FFFD0546002856D00678312E64D0322E2BD0332E4FD10027E3681A785F2A00F00D812046FFF7AAFF03462FB11A4620463721FEF71DF9034620462A463521BDE8CF
S3FD08009010F041FEF715B94B78722B00F0DE80702BD4D10231C160FFF791FF4921024600232046BDE8F041FEF703B943680027032B21D8DFE813F056003F019A005E008B1CC3608B78542B00F0D580FEF727FB451C11D06369A26993420DDA03EB430221690133920063618B1805D0062088545D601846BDE8F0810020BDE8F0814B786E2B9CD10231C1606CE7BDE8F041FEF760BCBDE8F041FEF71ABBD0F80480236BD8F80820D8F80070023A1344236338468D4905F0A6FC002800F0A980D8F80C30B6E72046FEF7ABFC2A46034604212046BDE8F041FEF7ADB84B786C2B7FF46FAF00255BE720462A4634210023BDE8F041FEF79FB838467C4905F07F
S3FD0800910883FC002800F08A803B786E2BB7D17B78772B01D0612BB2D15F21204600F0F0F806462046FEF73CFEE16807460B78452B00F0A980702B00F0B580692B9FD14B786C2B9CD12046FFF7FDFE03463A4620463A21FEF771F83246034639212046FEF76BF82A46034638212046BDE8F041FEF763B86B681B685A78632A62D02046FFF7E1FE804638465B4905F03EFC002852D03846594905F038FC28B13846574905F033FC00286AD12046FFF78EFDE36806461B78492B6BD04246334620463721FEF73BF82A46034636212046BDE8F041FEF733B80231C160FEF7E3FD05462046FFF773FDE168064609782046492936D02A4633460121BDE8F04103
S3FD08009200FEF71EB80331C16000252AE70133E3602046452100F078F80346EEE62046FEF7C3FDF0E62046FFF791FE06462046FFF78DFE07462046FFF789FE03468AE72046452100F061F80646B9E71B78A3F16302012A02D9723B012B94D82046FEF7A4FD804693E7FEF7E2FB3246034604212046FDF7E6FF2A46034601212046BDE8F041FDF7DEBF2046FFF761FE064697E70131E16000235EE72046FEF7C8FB3246034604212046FDF7CCFF064688E74B78692B7FF4E9AE0231E1602046452100F024F8034647E72FB13B78702B06D06D2B04D00027332E7FF48DAE86E67A789A42F7D1E3681A785F2A01D00127F2E70133E3600027EEE70C6F020866
S3FD080092F8706A0208646A0208686A02086C6A0208F0B5C3680F46197883B00022B9420446019218BF01AE0AD11BE0FDF78DFF306000F1080668B1E3681A78BA420CD02046FFF708FE05462E2120462A460023002DEBD1002003B0F0BD01980133E36003B0F0BD0133C3602E21134603B0BDE8F040FDF76ABF2DE9F041044608460D4614F053FB50B3D4F800112F184FF0000809E00B46BD4201F10101C4F80011E65484F804611AD0FF2915F8016BF1D1D4F8083184F8FF802046D4F80C219847D4F8203101210B44C4F82031BD424FF00003C4F80011E65484F80461E4D1BDE8F08100BF2DE9F04F137897B0154604460E464B2B01F29081DFE813F026
S3FD080093F08704A603A6031D03F704DF04600518030603DF02B80291026A022D020602DF01B80191016A0143011C01F500CE00A7007F006B006B006B004C004C004C004C004C004C004C00F108F1084C004C00C3081309B60742072507E2062507AE06AE066909190942099C085A0546053A05350575067006700631063106F905EE05E005AF058805750827084E088E09CB07F10760040A04D303B404D4F8141116ABD4F8102143F8401D00210795C4F81431099208916A682046314602F030FA089B23B931462A46204602F035FA069BC4F8143117B0BDE8F08FD0F8147177B13A46916841B951680978A1F11900022805D88B4201F054851268002A6C
S3FD080094E8F1D13946CEE79768D2F80490002FE3D00025D0F80011A84609E00B4601310135AF42C4F80011E65484F80461D4D0FF2919F80560F1D1D4F8083184F8FF802046D4F80C219847D4F8203101210B44C4F820310023E3E7D64FD0F8001107F1110A4FF000090AE00B4601315745C4F8001104F8038084F8048101F00D82FF2917F8018FF0D1D4F8083184F8FF902046D4F80C219847D4F8203101210B44C4F820310023E2E7C34FD0F8001107F1150A4FF000090AE00B4601315745C4F8001104F8038084F8048101F0F180FF2917F8018FF0D1D4F8083184F8FF902046D4F80C219847D4F8203101210B44C4F820310023E2E7B14FD0F8001154
S3FD080095E007F1190A4FF000090AE00B4601315745C4F8001104F8038084F8048101F0B980FF2917F8018FF0D1D4F8083184F8FF902046D4F80C219847D4F8203101210B44C4F820310023E2E79E4FD0F8001107F1160A4FF000090AE00B4601315745C4F8001104F8038084F8048101F0DC80FF2917F8018FF0D1D4F8083184F8FF902046D4F80C219847D4F8203101210B44C4F820310023E2E78C4FD0F8001107F1130A4FF000090AE00B4601315745C4F8001104F8038084F8048101F0AE80FF2917F8018FF0D1D4F8083184F8FF902046D4F80C219847D4F8203101210B44C4F820310023E2E7794FD0F8001107F10F0A4FF000090AE00B460131D5
S3FD080096D85745C4F8001104F8038084F8048101F09580FF2917F8018FF0D1D4F8083184F8FF902046D4F80C219847D4F8203101210B44C4F820310023E2E7674FD0F8001107F11A0A4FF000090AE00B4601315745C4F8001104F8038084F8048101F01680FF2917F8018FF0D1D4F8083184F8FF902046D4F80C219847D4F8203101210B44C4F820310023E2E7544FD0F8001107F1110A4FF000090AE00B4601315745C4F8001104F8038084F8048101F0AA80FF2917F8018FF0D1D4F8083184F8FF902046D4F80C219847D4F8203101210B44C4F820310023E2E7424FD0F8001107F1150A4FF000090AE00B4601315745C4F8001104F8038084F804814F
S3FD080097D001F07C80FF2917F8018FF0D1D4F8083184F8FF902046D4F80C219847D4F8203101210B44C4F820310023E2E72F4FD0F8001107F1100A4FF000090AE00B4601315745C4F8001104F8038084F8048101F04E80FF2917F8018FF0D1D4F8083184F8FF902046D4F80C219847D4F8203101210B44C4F820310023E2E71D4FD0F8001107F1120A4FF000090AE00B4601315745C4F8001104F8038084F8048101F02080FF2917F8018FF0D1D4F8083184F8FF902046D4F80C219847D4F8203101210B44C4F820310023E2E7BB6B0208A36B0208876B02086F6B02085B6B02084B6B02082F6B02081B6B0208176B0208036B0208EF6A0208C94FD0F80E
S3FD080098C8001107F10D0A4FF000090AE00B4601315745C4F8001104F8038084F8048100F0D587FF2917F8018FF0D1D4F8083184F8FF902046D4F80C219847D4F8203101210B44C4F820310023E2E7B74FD0F8001107F1180A4FF000090AE00B4601315745C4F8001104F8038084F8048100F08387FF2917F8018FF0D1D4F8083184F8FF902046D4F80C219847D4F8203101210B44C4F820310023E2E7A44FD0F8001107F1080A4FF000090AE00B4601315745C4F8001104F8038084F8048100F05587FF2917F8018FF0D1D4F8083184F8FF902046D4F80C219847D4F8203101210B44C4F820310023E2E7924FD0F8001107F10B0A4FF000090AE00B465E
S3FD080099C001315745C4F8001104F8038084F8048100F02787FF2917F8018FF0D1D4F8083184F8FF902046D4F80C219847D4F8203101210B44C4F820310023E2E7D0F80011FF2901F0CA824A1C7E23C4F80021635484F804313146AA68204601F077FF4FE53146926801F072FF4AE50022D0F81431C0F814216F680293002F01F0098506A9D0F810A10191904694460B46397808F10108A1F11C0004281A60C4F814315F60C3F808C0C3F80CA01A4603F1100340F25286042901F0398602293DD1D7F808B09BF80030452B08BFDBF804B09BF800301C3B042B30D8B8F1040F01F07F86019A234602EB081C294632465D46564664468B469246994603E0F1
S3FD08009AB8B8F1040F01F06D861CE90F0084E80F00A4F11003236000230CE94800C9F814414CF80C5C6D6808F101082B780CF1100C1C3B042B04F11004E2D94C4656465D46AA682046314601F005FF3B78042B04BF049BC4F81031B8F1000F0FD0019A474602EB08154FF02009B04655F8086C013F002E01F07D84103D002FF6D10299C4F81411C1E43146526801F0E4FE16F0040940F0F2852B4FD4F8001107F1020A0AE00B4601315745C4F8001104F8038084F8048100F0ED85FF2917F8018FF0D1D4F8083184F8FF902046D4F80C219847D4F8203101210B44C4F820310023E2E71A4F3146526801F0B6FE07F1050AD4F800114FF000090AE00B46D9
S3FD08009BB001315745C4F8001104F8038084F8048100F0B887FF2917F8018FF0D1D4F8083184F8FF902046D4F80C219847D4F8203101210B44C4F820310023E2E7DF6A0208BB6A0208AF6A0208A36A02087B6A0208736A02085168FDF729FE002801F075854FF0000803782F2B40F0D0874368002B00F0CC87806808F101080028F2D16D680195002708F1FF33DFF8D0A3B9460293C4F81C7120463146019A01F05FFE029BBB4229DDD4F80011DFF8B4B309E00B46D34501F10101C4F80011E55484F804511AD0FF291BF8015FF1D1D4F8083184F8FF902046D4F80C219847D4F8203101210B44C4F82031D3454FF00003C4F80011E55484F80451E4D166
S3FD08009CA801374745C8D107E4D04FD0F8001107F11A0A4FF000090AE00B4601315745C4F8001104F8038084F8048100F00986FF2917F8018FF0D1D4F8083184F8FF902046D4F80C219847D4F8203101210B44C4F820310023E2E716F0040641F0B3819768D2F80490002F3FF4D7ABD0F80011B0460AE00B4601310136B742C4F80011E55484F804513FF4C8ABFF2919F80650F0D1D4F8083184F8FF802046D4F80C219847D4F8203101210B44C4F820310023E2E7A74F3146526801F0D5FD07F1080AD4F800114FF000090AE00B4601315745C4F8001104F8038084F8048100F0EA86FF2917F8018FF0D1D4F8083184F8FF902046D4F80C219847D4F8BB
S3FD08009DA0203101210B44C4F820310023E2E7111DFDF732FD002801F0188003782F2B01F00780D4F8105102462B683146C4F81031204601F09BFDC4F81051FFF771BB0023D0F81481C0F814315768720705D53B781BB9BA68062A01F0C0833A462046314601F084FD94F804313C2B01F03483D4F80031FF2B01F02F82591C3C22C4F80011E25484F804213146AA68204601F06EFD94F804313E2B01F01083D4F80031FF2B01F00682591C3E22C4F80011E25484F80421C4F81481FFF733BB0123C0F81831FFF72EBBD2F8088098F80030372B00F062870123C4F81831FFF722BB576895683B78312B01F00880332B01F04B803A46314602F09FFB2046B3
S3FD08009E9831462A4602F0D4FBFFF70EBB3146526802F094FBFFF708BB5768002F40F0D986504DD0F8001105F1040809E00B4601314545C4F80011E65484F804613FF4F4AAFF2915F8016FF1D1D4F8083184F8FF702046D4F80C219847D4F8203101210B44C4F820310023E3E73F4FD0F8001107F10A0A4FF000090AE00B4601315745C4F8001104F8038084F8048100F0ED85FF2917F8018FF0D1D4F8083184F8FF902046D4F80C219847D4F8203101210B44C4F820310023E2E7526806A82C4913F014FD06A813F061FD00283FF4AEAA0DF11705D4F800112F184FF0000809E00B460131BD42C4F80011E65484F804613FF49CAAFF2915F8016FF1D1F6
S3FD08009F90D4F8083184F8FF802046D4F80C219847D4F8203101210B44C4F820310023E3E7D0F800111579FF2901F0B3804B1CC4F80031655484F80451FFF77ABA3146526801F09CFC20463146AA6801F097FCFFF76FBA094FD0F8001107F10E0A4FF000091BE000BFCF6B0208E36C0208736C0208636C0208906A0208536C0208056C0208036C02080B4601315745C4F8001104F8038084F8048100F06485FF2917F8018FF0D1D4F8083184F8FF902046D4F80C219847D4F8203101210B44C4F820310023E2E752681178272940F0B8855268177C5FB1062F41F27C81072F06D1AA68117819B99168012901F0B183D4F80011FF2901F054814A1C2823F9
S3FD0800A088C4F80021635484F804316A682046314601F038FCD4F80031FF2B01F02081591C2922C4F80011E25484F804212B783C2B01F00A82082F01F0E88120463146AA6801F020FCFFF7F8B90123C0F81831FFF7F3B993681A78392A7FF4C7AE9F683A783A2A7FF4C2AED5F804A0BC49DAF80420D3F804801068D7F80490BD6804F084FC002801F094822046B549FFF72BF9D8F8043043B120463146424602F091FA20462021FDF759FA4A462046314601F0EAFB002D3FF4C1A9204631462A4602F080FAFFF7BAB9526812B1314601F0DBFBAB68002B3FF4B1A9D4F80071FD2F00F2FD86DFF890824FF0000A08F1020B394609E00B460131D845C4F80F
S3FD0800A1800011E75484F8047100F00185FF2918F8017FF1D1D4F8083184F8FFA02046D4F80C219847D4F8203101210B44C4F820310023E3E7B2F90A30002B40F02D866A688A4953688B4200F0FF853146204601F09DFBD4F80031FF2B01F0F880591C2022C4F80011E25484F80421B5F90830002B00F0EF847E4D4FF00008AF1D09E00B460131BD42C4F80011E65484F804613FF457A9FF2915F8016FF1D1D4F8083184F8FF802046D4F80C219847D4F8203101210B44C4F820310023E3E7D0F8142116AB43F8402DC0F81431D0F81031AA680027314609930795089701F058FB089B23B931462A46204601F05DFB069BC4F81431FFF726B916AB0193C4
S3FD0800A278D0F814B1019ACDF808B042F840BD01920022D0F8103101990892029AC0F8141107950993002A01F01E8353681B78193B022B01F21883AB464FF00108174603968A460D4604E07B681B78193B022B1DD84FEA081C0DF15809BB68E144A9F140068BB9B8F1030F00F2DD8797E80F0086E80F0049F8405C01230AEB0C05C4F8145108F10108BB603F68002FDCD1039E20463146DBF8082001F0FDFA0299089B5D46C4F81411002B7FF4CFA8B8F1010F01F03A81019A02EB081757F80C2C08F1FF382046314601F0F2FAB8F1010FA7F11007F2D1D4F81431204631462A1D01F0BCFEFFF7B2B8B30600F1498553681BB116F0400300F09C8726F089
S3FD0800A37060062046314605F10802D4F8143101F079FFFFF79DB81B4ED0F8001106F10E094FF0000809E00B4601314E45C4F80011E75484F8047100F0F882FF2916F8017FF1D1D4F8083184F8FF802046D4F80C219847D4F8203101210B44C4F820310023E3E7094FD0F8001107F1160A4FF0000919E000BF706A0208306C0208942E0208F36B0208D36C0208D36B0208036C02080B4601315745C4F8001104F8038084F8048100F0BB82FF2917F8018FF0D1D4F8083184F8FF902046D4F80C219847D4F8203101210B44C4F820310023E2E7D04FD0F8001107F11C0A4FF000090AE00B4601315745C4F8001104F8038084F8048100F06183FF2917F8E2
S3FD0800A468018FF0D1D4F8083184F8FF902046D4F80C219847D4F8203101210B44C4F820310023E2E7BD4FD0F8001107F1080A4FF000090AE00B4601315745C4F8001104F8038084F8048100F0B182FF2917F8018FF0D1D4F8083184F8FF902046D4F80C219847D4F8203101210B44C4F820310023E2E7AB4FD0F8001107F11D0A4FF000090AE00B4601315745C4F8001104F8038084F8048100F04083FF2917F8018FF0D1D4F8083184F8FF902046D4F80C219847D4F8203101210B44C4F820310023E2E7984FD0F8001107F1090A4FF000090AE00B4601315745C4F8001104F8038084F8048100F0D481FF2917F8018FF0D1D4F8083184F8FF9020466F
S3FD0800A560D4F80C219847D4F8203101210B44C4F820310023E2E716F00406536840F04B835F68D3F80090002F3EF49AAFD0F80011B0460AE00B4601310136B742C4F80011E55484F804513EF48BAFFF2919F80650F0D1D4F8083184F8FF802046D4F80C219847D4F8203101210B44C4F820310023E2E750680378052B00F00B87232B00F0A5832A789A4200F0A183242B7EF44CAFD4F81471426816ABD4F8101143F8407D00200795C4F8143109910890002A7EF449AFFEF746BF3146526801F077F9FEF74FBF57685A4DD7F80890D0F8001105F1080A4FF0000809E00B4601315545C4F80011E65484F8046100F06381FF2915F8016FF1D1D4F80831CE
S3FD0800A65884F8FF802046D4F80C219847D4F8203101210B44C4F820310023E3E7454FD0F8001107F1090A4FF000090AE00B4601315745C4F8001104F8038084F8048100F03581FF2917F8018FF0D1D4F8083184F8FF902046D4F80C219847D4F8203101210B44C4F820310023E2E75268AF6812B1314601F01FF9D4F80031FF2B00F084845A1C7B25C4F800213146E5543A46204684F8045101F00EF9D4F80011FF2900F061844A1C7D23C4F80021635484F80431FEF7DABE0123C0F81831FEF7D5BE7F68002F00F09986B8F1040F7FF493A90123C4F81831FEF7C8BED4F80011FF2900F00E874A1C2E23C4F80021635484F80431D5F8088098F800306F
S3FD0800A750452B00F0C18420463146424601F0D6F8FEF7AEBE204631466A6801F0CFF8FEF7A7BE204631466A6801F0C8F8FEF7A0BEA36C0208C36C0208836C0208136C0208076C0208BD4F31462046AA6801F0B6F807F1050AD4F800114FF0000909E00B4601315745C4F8001104F8038084F8048113D0FF2917F8018FF1D1D4F8083184F8FF902046D4F80C219847D4F8203101210B44C4F820310023E3E7204631466A6801F08CF8FEF764BE204631466A6801F085F8FEF75DBE204631466A6801F07EF8FEF756BE204631466A6801F077F8FEF74FBE204631466A6801F070F8FEF748BE204631466A6801F069F8FEF741BE944F314620466A6801F0A4
S3FD0800A84861F807F1040AD4F800114FF0000909E00B4601315745C4F8001104F8038084F804811AD0FF2917F8018FF1D1D4F8083184F8FF902046D4F80C219847D4F8203101210B44C4F820310023E3E7204631466A6801F037F8FEF70FBE20463146AA6801F030F8FEF708BE204631466A6801F029F8FEF701BE204631466A6801F022F8FEF7FABD204631466A6801F01BF8FEF7F3BD204631466A6801F014F8FEF7ECBD204631466A6801F00DF8FEF7E5BD204631462A1D01F0A6FDFEF7DEBD20463146AA6800F0FFFFFEF7D7BD7D682B78613B192B40F2A48205EB090313F8013C202B0CBF09F1FF374F46002F3EF4C5ADD4F800112F444FF00008E4
S3FD0800A94009E00B460131BD42C4F80011E65484F804613EF4B5ADFF2915F8016BF1D1D4F8083184F8FF802046D4F80C219847D4F8203101210B44C4F820310023E3E7204631466A6800F0C2FFFEF79ABD204631466A6800F0BBFFFEF793BD6A6806A801323C4912F0EDFF06A813F03AF820B30DF11705D4F800112F184FF0000808E00B460131BD42C4F80011E65484F8046115D0FF2915F8016FF2D1D4F8083184F8FF802046D4F80C219847D4F8203101210B44C4F820310023E4E7D4F80011FF2900F002834A1C7D23C4F80021635484F80431FEF756BD3146204E20466A6800F076FF06F10209D4F800114FF0000808E00B4601314E45C4F80011B0
S3FD0800AA38E75484F8047113D0FF2916F8017FF2D1D4F8083184F8FF802046D4F80C219847D4F8203101210B44C4F820310023E4E7AA6806A80132094912F086FF06A812F0D3FF60B30DF11705D4F800112F184FF0000810E09B6B0208D76A0208906A0208CF6C02080B460131BD42C4F80011E65484F8046115D0FF2915F8016FF2D1D4F8083184F8FF802046D4F80C219847D4F8203101210B44C4F820310023E4E7D4F80011FF2900F032834A1C7D23C4F80021635484F80431FEF7E7BC204631466A6800F008FFFEF7E0BC31466A68204600F001FFD4F80011FF2900F08A824A1C2923C4F80021635484F80431FEF7CDBC204631466A6800F0EEFE6D
S3FD0800AB30FEF7C6BC3146AA68204600F0E7FED4F80011FF2900F00F834A1C5D23C4F80021635484F80431FEF7B3BC3146AA68204600F0D4FED4F80011FF2900F06E824A1C5D23C4F80021635484F80431FEF7A0BC204631466A6800F0C1FEFEF799BCAA680F4620463146D4F8205100F0B7FED4F820319D427EF48CACD4F80031BB427EF487AC023FC4F80071FEF782BC6D680195B8F1000F7FF435A8FEF77ABC0027FFF754BAAB4D9846AF1D09E00B460131BD42C4F80011E65484F804613EF469ACFF2915F8016FF1D1D4F8083184F8FF802046D4F80C219847D4F8203101210B44C4F820310023E3E7DF68D3F80890002F3EF44FAC0025D0F80011D2
S3FD0800AC28A8460AE00B4601310135AF42C4F80011E65484F804613EF43FACFF2919F80560F0D1D4F8083184F8FF802046D4F80C219847D4F8203101210B44C4F820310023E2E7864DD0F8001105F106094FF0000808E00B4601314D45C4F80011E65484F8046113D0FF2915F8016FF2D1D4F8083184F8FF802046D4F80C219847D4F8203101210B44C4F820310023E4E73A4606A8734912F061FE06A812F0AEFE20B30DF11705D4F800112F184FF0000808E00B460131BD42C4F80011E65484F8046115D0FF2915F8016FF2D1D4F8083184F8FF802046D4F80C219847D4F8203101210B44C4F820310023E4E7D4F80011FF2900F045844A1C7D23C4F8A7
S3FD0800AD200021635484F80431FEF7CABB0546D4F81411FEF7ABBB5268536819684878632800F0E2831178312900F04E8453684F49186803F05DFED8F8042018B91378032B00F05B842046314601F06EFCD5F804804749D8F804301F68384603F049FE002800F022843846414903F042FE002840F03D84AB6831469A68204601F055FC6B681A78312A7EF48CAB5B689A68012A7EF487AB5B681B783E2B7EF482AB20462921FCF70EFCFEF77CBBD4F80011FFF70DBAD4F81C3102E002782F2A06D1002B40F376858068013B0028F5D10123C4F81831FEF766BB26F0600608323146D4F8143101F038FA6A68002A3EF45AAB2046314600F07CFDFEF754BB4D
S3FD0800AE181E4FD0F8001107F1050A4FF000090AE00B4601315745C4F8001104F8038084F804813FF4C0A9FF2917F8018FF0D1D4F8083184F8FF902046D4F80C219847D4F8203101210B44C4F820310023E2E7FF2900F021844A1C2023C4F80021635484F804317D684FE500BFFB6B02087B6C0208906A0208646A0208286C0208EB6B02087B68C549D3F80080404603F0B5FD2B7810B9032B00F01184372B00F087843A462046314601F08AFBB8F1000F3EF4E7AF4046BA4903F0A0FD002800F03E824046B74903F099FD074600287EF4D8AFD4F80031FF2B00F02184581C2827C4F800013146E7542A46204684F8047100F002FDD4F80011FF2900F055
S3FD0800AF10FF8329234A1CC4F80021635484F80431FEF7CEBAD0F80011FF2900F0AF834A1C2823C4F80021204663543A1D314684F8043101F083FAD4F80011FF2900F08D834A1C2923C4F80021635484F80431FEF79ABF4FF0000804F807803946D4F808312046D4F80C219847D4F82031C4F8008101334746C4F82031FFF7EEB8204631466A6800F0BBFCFEF793BA0027D0F80831D4F80C2180F8FF709847D4F8203139460133C4F820310122FEF726BD0025D4F80831D4F80C2184F8FF5020469847D4F8203129460133C4F820310122FFF78EBB00251946D4F80C21D4F8083184F8FF5020469847D4F820212B460132C4F820210122FFF76ABB002594
S3FD0800B008D4F80831D4F80C2184F8FF5020469847D4F8203129460133C4F820310122EDE40025D4F80831D4F80C2184F8FF5020469847D4F8203129460133C4F82031012265E50025D4F80831D4F80C2184F8FF5020469847D4F8203129460133C4F82031012281E5566897683744BE42BEF424AA4FF000080DE0D4F80011FF2918D04B1CC4F80031655484F804510136B7427EF613AABB1B032B3578EDDD5F2DEBD172785F2AE8D1B378552B00F050831546E2E7D4F80831D4F80C2184F8FF8020469847D4F8202101231A44C4F820210021D7E7384DD4F8001105F10D0A4FF0000908E00B4601315545C4F80011E75484F8047146D0FF2915F8017FBB
S3FD0800B100F2D1D4F8083184F8FF902046D4F80C219847D4F8203101210B44C4F820310023E4E70026D0F8083180F8FF60D4F80C219847D4F8203131460133C4F820310123FEF73DBF0025D4F80831D4F80C2184F8FF5020469847D4F8203129460133C4F820310122BDE40025D4F80831D4F80C2184F8FF5020469847D4F8203129460133C4F820310122E0E4D8F8082006A801320B4912F0F5FB06A812F042FC78B30DF11705D4F8001105EB000A4FF0000912E0206C0208246C02080C6F02087F6A0208906A02080B4601315545C4F80011E75484F8047115D0FF2915F8017FF2D1D4F8083184F8FF902046D4F80C219847D4F8203101210B44C4F82A
S3FD0800B1F820310023E4E7D4F80011BD4D4FF0000905F1030A08E00B4601315545C4F80011E75484F8047113D0FF2915F8017FF2D1D4F8083184F8FF902046D4F80C219847D4F8203101210B44C4F820310023E4E7D8F80480FFF783BA00251946D4F80C21D4F8083184F8FF5020469847D4F820212B460132C4F820210121FEF7E8BD00271946D4F80C21D4F8083184F8FF7020469847D4F820213B460132C4F820210121FEF7BFBD0123C4F81831FEF70DB9D4F8141116AA42F8401DC4F81421D4F8107126F060066A683146204608930795099700F020FB069A089BC4F81421002B7EF4F3A820462021FCF77FF9FFF746B80022194684F8FF20D4F857
S3FD0800B2F00831D4F80C21204698472923237084F804312A78D4F82031012101333C2AC4F82031C4F800117EF4D1AE2D234A1CC4F80021635484F80431FEF7C8BE4FF00008D4F80831D4F80C2184F8FF8020469847D4F8203141460133C4F820310122FEF79ABE204631462A4600F0D8FAFEF7B0B8D5F8088098F80020002A7EF486AE3C2B00F09082314642462046023F00F0C6FA042F3EF69DA8DFE807F01B150F09030020465A49FDF7EAFFFEF792B820465849FDF7E4FFFEF78CB820465649FDF7DEFFFEF786B820466C21FCF712F9FEF780B820467521FCF70CF9FEF77AB800261946D4F80C21D4F8083184F8FF6020469847D4F82021334601322C
S3FD0800B3E8C4F820210121FEF7F6BE011D2046FCF70FFA80B103782F2B7FF4ECA8D4F81C3105E08068013B30B102782F2A03D1002BF7DC00F051820123C4F81831FEF74CB8D4F80011FF2900F0BA814B1CC4F80031204604F8019055F80C2C414684F8049100F06CFAFEF76FBB0123C4F81831FEF733B8D4F80011FF2900F0DC8120224B1CC4F80031625484F80421FEF7E4BCD4F80011FF2900F0EA8120224B1CC4F80031625484F80421FEF7C0BCD4F80011FF2900F0EC814A1C5B23C4F80021635484F804313146AA68204600F02CFAD4F80011FF2900F09F815D234A1CC4F80021635484F80431FDF7F8BFFF297FF422AF4FF00008D4F8083184F82A
S3FD0800B4E0FF802046D4F80C219847D4F8203141460133C4F8203110E7936A0208406C02083C6C0208386C02080978A1F16300012803D9723901293FF615AC2046314601F059F820463C21FCF75BF8AB6820465A68314600F0EBF92046C049FDF717FFAB68314620469A6800F0E1F920462921FCF747F8FDF7B5BF0027D4F80831D4F80C2184F8FF7020469847D4F8203139460133C4F820310122FFF7E1B87868B04912F07FFA00287EF439AC31462046AA6800F0BDF92046AB49FDF7E9FEFEF75ABC029BFEF7D5BE0025D4F80831D4F80C2184F8FF5020469847D4F8203129460133C4F820310122FFF7AABB20465B21FCF708F8AB68314620469A6847
S3FD0800B5D800F098F920465D21FBF7FEFFFFF7DBBB996801297FF4AEAB5B681B783E2B7FF4A9AB20462821FBF7EFFF6A68D5F80880FFF7A0BB42462046314600F0DFFFFFF7BCBB936820461B783146292B1CBF0123C4F81831526801F00BF8FFF79BBB42462046314601F004F820463146524600F0C5FF4A462046314600F0FAFF20467C49FDF788FE204631462A4600F0F1FFFDF72BBF0027D4F80831D4F80C2184F8FF7020469847D4F8203139460133C4F82031012262E44FF00008D0F80831D4F80C2180F8FF809847D4F8203141460133C4F82031012240E40025D4F80831D4F80C2184F8FF5020469847D4F8203129460133C4F820310122FFF734
S3FD0800B6D0CEBB6B681A78012A7FF4EDABAA681278292A08BF1D46FFF7E6BB16AB43F848AD0597C4F81031FEF7FFB9314620466A6800F0A2FF20465149FDF730FEFDF7D8BE0025D4F8083184F8FF502046D4F80C219847D4F8203129460133C4F82031FFF7F0BB84F8FF001946D4F80C21D4F8083120469847D4F820213B460132C4F82021FFF7CEBBF31C9F427FF6ACAC002104E01546BB4205EB011115D09C4613F8015BA5F13002D0B20928A5F14109F0D9B9F1050FA5F1610201D8373DEAE7052A00F28780573DE5E75F2571E44C460123C4F81831FDF78DBED4F8083184F8FF602046D4F80C219847D4F8203131460133C4F8203136E66A6820469D
S3FD0800B7C8314600F03DFF204631463A4600F0FEFEFDF772BE3B2B7EF44CAC53681B78302B00F08880312B7EF444AC1749FDF7BAFDFDF762BE0025D4F8083184F8FF502046D4F80C219847D4F8203129460133C4F8203150E60025D4F8083184F8FF502046D4F80C219847D4F8203129460133C4F8203113E6F06C0208986A0208A06A02082C6C0208706C02084C6C02080027D4F8083184F8FF702046D4F80C219847D4F8203139460133C4F8203105E60027D4F8083184F8FF702046D4F80C219847D4F8203139460133C4F8203103E62D21FBF7A3FED5F8088069E567457FF678AF5F2D7FF475AFFF293FF6E6ABC9B220466646FBF792FEFFF7E9BB60
S3FD0800B8C0406800283FF4ABAD0378FEF787BE7FF48CAA406800287EF474AAFFF786BA31462046AA6800F012F80299089BC4F81411002B7DF4E5AD0B46FEF729BD0249FDF735FDFDF7DDBD00BF446C02082AB1D0F818310BB9FDF760BD70470122C0F81821704700BF13782DE9F047033B1546044689462A2B00F2D481DFE813F05200D201D201D201D201D201D201D201D201D201D201D201D201D201D201D201D201D201D201D201D201D2015D008300A9005D008300A900CE00E6001E013301450148014B017101D201D201D201D2019601D2012B00D84ED0F8003106F10A0A4FF0000809E01A4601335645C4F80031A75484F8047100F0B981FF2BC9
S3FD0800B9B816F8017FF1D11946D4F80C21D4F8083184F8FF8020469847D4F8202101231A44C4F820210022E2E76A68002A00F0D880D4F81831002B00F0BA81BDE8F087C04DD0F8001105F109074FF0000809E00B460131BD42C4F80011E65484F8046100F08381FF2915F8016FF1D1D4F8083184F8FF802046D4F80C219847D4F8203101210B44C4F820310023E3E7AE4DD0F8001105F109074FF0000809E00B460131BD42C4F80011E65484F8046100F05F81FF2915F8016FF1D1D4F8083184F8FF802046D4F80C219847D4F8203101210B44C4F820310023E3E79C4DD0F80011AF1D4FF0000809E00B460131BD42C4F80011E65484F8046100F0328177
S3FD0800BAB0FF2915F8016FF1D1D4F8083184F8FF802046D4F80C219847D4F8203101210B44C4F820310023E3E7D0F80031FF2B00F05981591C2022C4F80011E25484F80421FF2900F03E814A1C2623C4F80021635484F80431BDE8F087D0F80031FF2B00F06281591C2022C4F80011E25484F80421784D4FF00008AF1C09E00B46BD4201F10101C4F80011E65484F804611AD0FF2915F8016FF1D1D4F8083184F8FF802046D4F80C219847D4F8203101210B44C4F82031BD424FF00003C4F80011E65484F80461E4D1BDE8F087D0F80011FF2900F01A814A1C2023C4F80021635484F80431AA68002A7FF428AF0123C4F81831BDE8F08711F004097FF40D
S3FD0800BBA824AFD0F80011FF2900F04C814A1C2A23C4F80021635484F80431BDE8F087D0F8001191E7D0F80011A6E74D4DD0F8001105F108074FF0000809E00B460131BD42C4F80011E65484F8046100F09380FF2915F8016FF1D1D4F8083184F8FF802046D4F80C219847D4F8203101210B44C4F820310023E3E73B4DD0F8001105F10A074FF0000808E00B460131BD42C4F80011E65484F804616BD0FF2915F8016FF2D1D4F8083184F8FF802046D4F80C219847D4F8203101210B44C4F820310023E4E790F80431282B0BD0D0F80011FF2900F0D9804A1C2023C4F80021635484F804316A68002A00F0C680D4F81831002B61D01D4DD4F80011EF1C76
S3FD0800BCA04FF0000808E00B460131BD42C4F80011E65484F8046148D0FF2915F8016FF2D1D4F8083184F8FF802046D4F80C219847D4F8203101210B44C4F820310023E4E7D0F81831002B7FF484AE2A46BDE8F047FDF772BB336D0208F36C0208FF6C02080B6D0208136D0208176D0208236D02082F6D0208BDE8F087BDE8F087BDE8F087BDE8F087BDE8F0876A68002A7AD0D4F8181161B1FF2B5FD0591C2922C4F80011E25484F80421BDE8F087BDE8F08749462046FDF741FBD4F80031EBE749462046FDF73AFB98E720464946BDE8F047FDF733BB0025D4F80831D4F80C2184F8FF5020469847D4F8203129460133C4F820310122B1E600251946BE
S3FD0800BD98D4F80C21D0F8083180F8FF509847D4F820212B460132C4F82021012196E60026D0F80831D4F80C2180F8FF609847D4F8203131460133C4F820310122D6E600251946D4F80C21D0F8083180F8FF509847D4F820212B460132C4F8202101218DE600251946D4F80C21D4F8083184F8FF5020469847D4F820212B460132C4F8202101218EE70123C4F8183139E70122C4F8182183E70026D0F80831D4F80C2180F8FF609847D4F8203131460133C4F82031012217E7D0F80831D4F80C2180F8FF909847D4F8203149460133C4F820310122A5E600BF2DE9F04F144689B005460F461E463AB3D0F8183123BB4FF0010802E0D5F81821F2B9A26873
S3FD0800BE90CAB9626810781EB9A0F11C03042B12D9E3682928C4F80880D5F81091C5F810310FD02A2818D0022821D028463946FFF731FDC5F810912468002CDDD109B0BDE8F08F394608322368284600F0CBF9C5F8109109B0BDE8F08F394604322368284600F0EEF8C5F8109109B0BDE8F08F0026D5F81481C5F81461526828463946FFF7FDFCC5F8148117F0040823D1684ED5F8001106F1020B09E00B4601315E45C5F8001105F803A085F804A11ED0FF2916F801AFF1D1D5F8083185F8FF802846D5F80C219847D5F8203101210B44C5F820310023E3E7D5F80011FF291BD04A1C2E23C5F800216B5485F8043163689C682378452B02D11EE06468ED
S3FD0800BF8823781C3B042BFAD9394622462846FFF7B9FCC5F8109109B0BDE8F08FD5F80831D5F80C2185F8FF6028469847D5F8203131460133C5F820310122D4E73F4ED5F8001106F10D0A4FF0000B09E00B4601315645C5F8001105F8038085F8048113D0FF2916F8018FF1D1D5F8083185F8FFB02846D5F80C219847D5F8203101210B44C5F820310023E3E7A26801A801322C4911F0B2FC01A811F0FFFC30B30DF10306D5F8001106EB000A4FF0000B09E00B4601315645C5F8001105F8038085F8048115D0FF2916F8018FF1D1D5F8083185F8FFB02846D5F80C219847D5F8203101210B44C5F820310023E3E7D5F80011154E4FF0000B06F1030A0C
S3FD0800C0800AE00B4601315645C5F8001105F8038085F804813FF477AFFF2916F8018FF0D1D5F8083185F8FFB02846D5F80C219847D5F8203101210B44C5F820310023E2E77B6A02087F6A0208906A0208936A02082DE9F84F994605460F4690464BB1986880B31B68002BFAD14A4628463946FFF7BDFED5F80031FF2B6AD0591C2022C5F80011EA5485F80421FF2900F096804B1C5B22C5F800316A5485F80421D8F800202AB139462846FFF7F1FBD5F80031FF2B71D0591C5D22C5F80011EA5485F80421BDE8F88F5B681B782A2B00F08780484ED5F8001106F1020A0AE00A46564501F10101C5F8001105F802B085F804B11DD0FF2916F801BFF0D1DE
S3FD0800C1784FF00003D5F80C2185F8FF30D5F808412846A047D5F8202101210A44C5F8202156454FF00002C5F8001105F802B085F804B1E1D139464A4628460023FFF75AFED5F80011FF2919D04B1C2922C5F800316A5485F8042192E700241946D5F80C21D5F8083185F8FF4028469847D5F8202123460132C5F82021012183E70024D5F8083185F8FF402846D5F80C219847D5F8203121460133C5F820310123D5E700241946D5F80C21D5F8083185F8FF4028469847D5F8202123460132C5F8202101217CE70024D5F8083185F8FF402846D5F80C219847D5F8203121460133C5F82031012359E7034639464A462846FFF702FED5F800114CE700BF2E
S3FD0800C2706B6C02082DE9F0479A46074688469146002B3BD09B68002B38D15446012206E016F4606F7BD1246884B3A36873BB6068694D0678193EF6B2122EF4D802FA06F63540002DECD097F80431202B6DD0D7F80031FF2B00F0AE80591C2022FF29C7F80011FA5487F8042163D10024D7F8083187F8FF403846D7F80C219847D7F8203121460133C7F82031012353E00022D7F814511346C7F81421414638465246FFF7ADFDD7F80011FF2962D04B1C2822C7F800317A5487F80421D9F8002012B1D7F8181191B1FF2B18D05A1C2924C7F800214146FC545246384687F804410123FFF78DFDC7F81451BDE8F08738464146FDF73BF8D7F80031FF2BB1
S3FD0800C368E6D100241946D7F80C21D7F8083187F8FF4038469847D7F8202123460132C7F820210122D5E797F8043103F0FD02282A8FD1D7F80011FF299BD04B1C28220024C7F80031D7F8145123467A54384687F80421C7F8144152464146FFF753FDD7F80021FF2A19D0511C2923FF29C7F80011BB5487F804319CD10024D7F8083187F8FF403846D7F80C219847D7F8203121460133C7F8203101238CE71146D7F80831D7F80C2187F8FF4038469847D7F8203122460133C7F820310121D5E700241946D7F80C21D7F8083187F8FF4038469847D7F8202123460132C7F82021012140E7073104002DE9F0411546126882B013780446042B0E4606D04E
S3FD0800C460D0F81831002B3DD002B0BDE8F081D0F8107102AB43F8087D0022C0F81031D0F81481C0F814212B6801935A68002A6FD0D0F81831002B3FD094F80431C4F810713C2B69D0D4F80021FF2A4BD0531C3C21C4F80031A15484F804112A689268002A52D0D4F8185195B1FF2B29D0591C3E22C4F80011E25484F80421C4F8148102B0BDE8F081FCF778FF02B0BDE8F08131462046FCF771FF94F80421D4F800313E2AE2D1FF2B44D01D4601332022C4F80031625584F80421D7E7FCF75EFF009FBBE700251946D4F80C21D4F8083184F8FF5020469847D4F820212B460132C4F820210121C4E700271146D4F80831D4F80C2184F8FF702046984758
S3FD0800C558D4F820313A460133C4F820310123A2E70122C4F81821ABE70123C0F818318FE7D4F80011FF2917D04A1C2023C4F80021635484F804318BE7194684F8FF50D4F808312046D4F80C219847D4F820310133C4F820310123ACE70027D4F80831D4F80C2184F8FF7020469847D4F8203139460133C4F820310122D7E700BF2DE9F84315780446312D08D0D0F818310BB1BDE8F883BDE8F843FCF7F3BE53689F68D3F80490002FF3D00025D0F80011A84609E00B4601310135AF42C4F80011E65484F8046113D0FF2919F80560F1D1D4F8083184F8FF802046D4F80C219847D4F8203101210B44C4F820310023E3E7BDE8F883F8B513781546012B3C
S3FD0800C6500F46044614D9302B12D0062B10D0D0F80031FF2B34D0591C2822C4F80011E254D4F81831002684F8042133B166B1F8BDD4F818310126002BF8D139462A462046FCF7A2FE002EF2D1D4F80011FF2907D04A1C2923C4F80021635484F80431F8BDD4F80831D4F80C2184F8FF6020469847D4F8203131460133C4F820310122E8E700261946D4F80C21D4F8083184F8FF609847D4F8202133460132C4F820210121BAE700BF2DE9F04FD7B0057800AF5F2D04460E46904672D020467C49082211F0B7F978B9237A2E2B05D05F2B03D0242B01D0814608E0637A442B00F0DF80492B00F098804FF00009204611F071F942008300991889000831CA
S3FD0800C7480A33ADEB010D23F00703EA4604EB000CADEB030D4FF0110B0023B9F1010FC7F810A0C7F81CD0BA613C60FC607862C7F804C0C7F808B07B613B62BB62FB623B6337D073D3B9F1030F70D8E27AB9F1020F04F10B0514BF4FF043094FF042095F2AFD6003D1227B5A2A00F09180284611F033F9294602463846FAF78AFD0246494600233846FAF738FDFC688146204611F023F92318FB60255C85B1002007F5AE77BD46BDE8F08F43785A2B89D14FF001099EE75F2D41D09946002DEED1B9F1000F63D007F134044A4620461121C7F8345187F83851C7F84451C7F84851C7F85051C7F85451C7F83C61C7F84081C7F84C51FCF7CEFDD7F83411FA
S3FD0800C840D7F83C312046D7F8402165549847D7F84C0107F5AE77D0F1010038BF0020BD46BDE8F08FA37A5F2B14BF4FF000094FF0020961E73846FBF797FAFB6881461D78AEE76578621C5A2DFA60B8D1494602343846FC60FBF76AFEBB68814613F0010FFB681D7812D19BE75B783846A3F16102192A4946A3F1300403D95F2B01D0092C11D8FAF799FDFB6881461D782E2DEBD086E7484686E70D3419463846FC60FBF745FE02466FE7FB681D7879E7A37A5F2B0CBF4FF003094FF000091DE7206A02082DE9F0410D4684B017461E4600282ED009B1002A2BD0002429496A460094019402940394FFF7E6FE00283ED0039BDBB14FF00108009C44B308
S3FD0800C938002D33D0204611F06FF83B6898421AD2421C2146284601F0E7FF204610F0ACF92C460EB300232046336004B0BDE8F081DDF80880E2E79EB16FF002030020336004B0BDE8F081284610F096F9C7F80080E7E72EB1B8F1010F11D06FF001033360002004B0BDE8F0812046DEE7002FEDD1D7E7009810F080F9002EEED1F0E74FF0FF3320463360D0E7E578000808B540B139B1FFF793FE002814BF00206FF0010008BD6FF0020008BD81F0004102E000BF83F0004330B54FEA41044FEA430594EA050F08BF90EA020F1FBF54EA000C55EA020C7FEA645C7FEA655C00F0E2804FEA5454D4EB5555B8BF6D420CDD2C4480EA020281EA030382EAF6
S3FD0800CA30000083EA010180EA020281EA0303362D88BF30BD11F0004F4FEA01314FF4801C4CEA113102D0404261EB410113F0004F4FEA03334CEA133302D0524263EB430394EA050F00F0A780A4F10104D5F1200E0DDB02FA0EFC22FA05F2801841F1000103FA0EF2801843FA05F359410EE0A5F120050EF1200E012A03FA0EFC28BF4CF0020C43FA05F3C01851EBE37101F0004507D54FF0000EDCF1000C7EEB00006EEB0101B1F5801F1BD3B1F5001F0CD349085FEA30004FEA3C0C04F101044FEA445212F5800F80F09A80BCF1004F08BF5FEA500C50F1000041EB045141EA050130BD5FEA4C0C404141EB010111F4801FA4F10104E9D191F0000F8C
S3FD0800CB2804BF01460020B1FA81F308BF2033A3F10B03B3F120020CDA0C3208DD02F1140CC2F10C0201FA0CF021FA02F10CE002F11402D8BFC2F1200C01FA02F120FA0CFCDCBF41EA0C019040E41AA2BF01EB0451294330BD6FEA04041F3C1CDA0C340EDC04F11404C4F1200220FA04F001FA02F340EA030021FA04F345EA030130BDC4F10C04C4F1200220FA02F001FA04F340EA0300294630BD21FA04F0294630BD94F0000F83F4801306BF81F480110134013D4EE77FEA645C18BF7FEA655C29D094EA050F08BF90EA020F05D054EA000C04BF1946104630BD91EA030F1EBF0021002030BD5FEA545C05D14000494128BF41F0004130BD14F58004F9
S3FD0800CC203CBF01F5801130BD01F0004545F0FE4141F470014FF0000030BD7FEA645C1ABF194610467FEA655C1CBF0B46024650EA013406BF52EA033591EA030F41F4002130BD00BF90F0000F04BF0021704730B54FF4806404F132044FF000054FF0000150E700BF90F0000F04BF0021704730B54FF4806404F1320410F0004548BF40424FF000013EE700BF42004FEAE2014FEA31014FEA02701FBF12F07F4393F07F4F81F06051704792F0000F14BF93F07F4F704730B54FF4607401F0004521F0004120E700BF50EA010208BF704730B54FF000050AE050EA010208BF704730B511F0004502D5404261EB41014FF4806404F132045FEA915C3FF41D
S3FD0800CD18DCAE4FF003025FEADC0C18BF03325FEADC0C18BF033202EBDC02C2F1200300FA03FC20FA02F001FA03FE40EA0E0021FA02F11444C1E600BF70B54FF0FF0C4CF4E06C1CEA11541DBF1CEA135594EA0C0F95EA0C0F00F0DEF82C4481EA030621EA4C5123EA4C5350EA013518BF52EA033541F4801143F4801338D0A0FB02CE4FF00005E1FB02E506F00042E0FB03E54FF00006E1FB03569CF0000F18BF4EF0010EA4F1FF04B6F5007F64F5407404D25FEA4E0E6D4146EB060642EAC62141EA55514FEAC52040EA5E504FEACE2EB4F1FD0C88BFBCF5E06F1ED8BEF1004F08BF5FEA500E50F1000041EB045170BD06F0004646EA010140EA020029
S3FD0800CE1081EA0301B4EB5C04C2BFD4EB0C0541EA045170BD41F480114FF0000E013C00F3AB8014F1360FDEBF002001F0004170BDC4F10004203C35DA0C341BDC04F11404C4F1200500FA05F320FA04F001FA05F240EA020001F0004221F0004110EBD37021FA04F642EB06015EEA430E08BF20EAD37070BDC4F10C04C4F1200500FA04F320FA05F001FA04F240EA020001F0004110EBD37041F100015EEA430E08BF20EAD37070BDC4F1200500FA05F24EEA020E20FA04F301FA05F243EA020321FA04F001F0004121FA04F220EA020000EBD3705EEA430E08BF20EAD37070BD94F0000F0FD101F00046400041EB010111F4801F08BF013CF7D041EAFD
S3FD0800CF08060195F0000F18BF704703F00046520043EB030313F4801F08BF013DF7D043EA0603704794EA0C0F0CEA135518BF95EA0C0F0CD050EA410618BF52EA4306D1D181EA030101F000414FF0000070BD50EA410606BF1046194652EA430619D094EA0C0F02D150EA013613D195EA0C0F05D152EA03361CBF104619460AD181EA030101F0004141F0FE4141F470014FF0000070BD41F0FE4141F4780170BD70B54FF0FF0C4CF4E06C1CEA11541DBF1CEA135594EA0C0F95EA0C0F00F0A7F8A4EB050481EA030E52EA03354FEA013100F088804FEA03334FF0805545EA131343EA12634FEA022245EA111545EA10654FEA00260EF000419D4208BFB3
S3FD0800D000964244F1FD0404F5407402D25B084FEA3202B61A65EB03055B084FEA32024FF480104FF4002CB6EB020E75EB030E22BFB61A754640EA0C005B084FEA3202B6EB020E75EB030E22BFB61A754640EA5C005B084FEA3202B6EB020E75EB030E22BFB61A754640EA9C005B084FEA3202B6EB020E75EB030E22BFB61A754640EADC0055EA060E18D04FEA051545EA16754FEA06164FEAC30343EA52734FEAC2025FEA1C1CC0D111F4801F0BD141EA00014FF000004FF0004CB6E711F4801F04BF01430020B4F1FD0C88BFBCF5E06F3FF6AFAEB5EB030C04BFB6EB020C5FEA500C50F1000041EB045170BD0EF0004E4EEA113114EB5C04C2BFD4EB45
S3FD0800D0F80C0541EA045170BD41F480114FF0000E013C90E645EA060E8DE60CEA135594EA0C0F08BF95EA0C0F3FF43BAF94EA0C0F0AD150EA01347FF434AF95EA0C0F7FF425AF104619462CE795EA0C0F06D152EA03353FF4FDAE1046194622E750EA410618BF52EA43067FF4C5AE50EA41047FF40DAF52EA43057FF4EBAE12E70000000000000000000000004FF0FF3C06E000BF4FF0010C02E000BF4FF0010C4DF804CD4FEA410C7FEA6C5C4FEA430C18BF7FEA6C5C1BD001B050EA410C0CBF52EA430C91EA030F02BF90EA020F0020704710F1000F91EA030F58BF994208BF90422CBFD8176FEAE37040F0010070474FEA410C7FEA6C5C02D150EAEE
S3FD0800D1F0013C07D14FEA430C7FEA6C5CD6D152EA033CD3D05DF8040B704700BF8446104662468C461946634600E000BF01B5FFF7B7FF002848BF10F1000F01BD4DF808EDFFF7F4FF0CBF012000205DF808FB00BF4DF808EDFFF7EAFF34BF012000205DF808FB00BF4DF808EDFFF7E0FF94BF012000205DF808FB00BF4DF808EDFFF7CEFF94BF012000205DF808FB00BF4DF808EDFFF7C4FF34BF012000205DF808FB00BF4FEA410212F5001215D211D56FF47873B3EB625212D94FEAC12343F0004343EA505311F0004F23FA02F018BF404270474FF00000704750EA013005D111F0004008BF6FF0004070474FF00000704700BF4A0011D212F5001293
S3FD0800D2E811D20DD56FF47873B3EB62520ED44FEAC12343F0004343EA505323FA02F070474FF00000704750EA013002D14FF0FF3070474FF0000070474FEA4102B2F1E04324BFB3F5001CDCF1FE5C0DD901F0004C4FEAC0024CEA5070B2F1004F40EB830008BF20F00100704711F0804F21D113F13872BCBF01F00040704741F480114FEA5252C2F11802C2F1200C10FA0CF320FA02F018BF40F001004FEAC1234FEAD32303FA0CFC40EA0C0023FA02F34FEA4303CCE77FEA625307D150EA01331EBF4FF0FE4040F44000704701F0004040F0FE4040F40000704700BF80F0004002E000BF81F0004142001FBF5FEA410392EA030F7FEA226C7FEA236CC5
S3FD0800D3E06AD04FEA1262D2EB1363C1BFD218414048404140B8BF5B42192B88BF704710F0004F40F4000020F07F4018BF404211F0004F41F4000121F07F4118BF494292EA030F3FD0A2F1010241FA03FC10EB0C00C3F1200301FA03F100F0004302D5494260EB4000B0F5000F13D3B0F1807F06D340084FEA310102F10102FE2A51D2B1F1004F40EBC25008BF20F0010040EA03007047490040EB000010F4000FA2F10102EDD1B0FA80FCACF1080CB2EB0C0200FA0CF0AABF00EBC25052421843BCBFD0401843704792F0000F81F4000106BF80F400000132013BB5E74FEA41037FEA226C18BF7FEA236C21D092EA030F04D092F0000F08BF08467047B1
S3FD0800D4D890EA010F1CBF0020704712F07F4F04D1400028BF40F00040704712F100723CBF00F50000704700F0004343F0FE4040F4000070477FEA226216BF08467FEA23630146420206BF5FEA412390EA010F40F4800070474FF0000304E000BF10F0004348BF40425FEA000C08BF704743F0964301464FF000001CE050EA010208BF70474FF000030AE000BF50EA010208BF704711F0004302D5404261EB41015FEA010C02BF84460146002043F0B64308BFA3F18053A3F50003BCFA8CF2083AA3EBC25310DB01FA02FC634400FA02FCC2F12002BCF1004F20FA02F243EB020008BF20F00100704702F1200201FA02FCC2F1200250EA4C0021FA02F2F6
S3FD0800D5D043EB020008BF20EADC707047000000004FF0FF0C1CEAD0521EBF1CEAD15392EA0C0F93EA0C0F6FD01A4480EA010C400218BF5FEA41211ED04FF0006343EA501043EA5111A0FB01310CF00040B1F5000F3EBF490041EAD3715B0040EA010062F17F02FD2A1DD8B3F1004F40EBC25008BF20F00100704790F0000F0CF0004C08BF49024CEA502040EA51207F3AC2BFD2F1FF0340EAC250704740F400004FF00003013A5DDC12F1190FDCBF00F000407047C2F10002410021FA02F1C2F1200200FA02FC5FEA310040F1000053EA4C0308BF20EADC70704792F0000F00F0004C02BF400010F4000F013AF9D040EA0C0093F0000F01F0004C02BF43
S3FD0800D6C8490011F4000F013BF9D041EA0C018FE70CEAD15392EA0C0F18BF93EA0C0F0AD030F0004C18BF31F0004CD8D180EA010000F00040704790F0000F17BF90F0004F084691F0000F91F0004F14D092EA0C0F01D142020FD193EA0C0F03D14B0218BF084608D180EA010000F0004040F0FE4040F40000704740F0FE4040F4400070474FF0FF0C1CEAD0521EBF1CEAD15392EA0C0F93EA0C0F69D0A2EB030280EA010C49024FEA402037D04FF0805343EA111143EA10130CF000408B4238BF5B0042F17D024FF4000C8B4224BF5B1A40EA0C00B3EB510F24BFA3EB510340EA5C00B3EB910F24BFA3EB910340EA9C00B3EBD10F24BFA3EBD10340EA94
S3FD0800D7C0DC001B0118BF5FEA1C1CE0D1FD2A3FF650AF8B4240EBC25008BF20F0010070470CF0004C4CEA50207F32C2BFD2F1FF0340EAC250704740F400004FF00003013A37E792F0000F00F0004C02BF400010F4000F013AF9D040EA0C0093F0000F01F0004C02BF490011F4000F013BF9D041EA0C0195E70CEAD15392EA0C0F08D142027FF47DAF93EA0C0F7FF470AF084676E793EA0C0F04D14B023FF44CAF08466EE730F0004C18BF31F0004CCAD130F000427FF45CAF31F000437FF43CAF5FE700BF4FF0FF3C06E000BF4FF0010C02E000BF4FF0010C4DF804CD4FEA40024FEA41037FEA226C18BF7FEA236C11D001B052EA530C18BF90EA010F8D
